{
  "contractName": "BitwiseOperations",
  "abi": [
    {
      "constant": true,
      "inputs": [
        {
          "internalType": "uint8",
          "name": "a",
          "type": "uint8"
        },
        {
          "internalType": "uint8",
          "name": "b",
          "type": "uint8"
        },
        {
          "internalType": "bytes32",
          "name": "operation",
          "type": "bytes32"
        }
      ],
      "name": "AndOrNot",
      "outputs": [
        {
          "internalType": "uint8",
          "name": "",
          "type": "uint8"
        }
      ],
      "payable": false,
      "stateMutability": "pure",
      "type": "function"
    }
  ],
  "bytecode": "0x608060405234801561001057600080fd5b5061026b806100206000396000f3fe608060405234801561001057600080fd5b506004361061002b5760003560e01c806335857a6514610030575b600080fd5b6100766004803603606081101561004657600080fd5b81019080803560ff169060200190929190803560ff16906020019092919080359060200190929190505050610092565b604051808260ff1660ff16815260200191505060405180910390f35b60007f414e4400000000000000000000000000000000000000000000000000000000008214156100c657828416905061022f565b7f4f520000000000000000000000000000000000000000000000000000000000008214156100f857828417905061022f565b7f4e4f540000000000000000000000000000000000000000000000000000000000821415610129578319905061022f565b7f4e414e440000000000000000000000000000000000000000000000000000000082141561015c5782841619905061022f565b7f584f52000000000000000000000000000000000000000000000000000000000082141561018e57828418905061022f565b7f4e4f5200000000000000000000000000000000000000000000000000000000008214156101c15782841719905061022f565b6040517f08c379a00000000000000000000000000000000000000000000000000000000081526004018080602001828103825260118152602001807f496e76616c6964206f7065726174696f6e00000000000000000000000000000081525060200191505060405180910390fd5b939250505056fea265627a7a72315820c208bc63b4339426a7e4f4e1e08285d9bbe59e6d3ba3c2c318681841f61fb68c64736f6c63430005100032",
  "source": "// SPDX-License-Identifier: MIT\r\npragma solidity >=0.4.22 <0.9.0;\r\n\r\ncontract BitwiseOperations {\r\n    function AndOrNot(uint8 a, uint8 b, bytes32 operation) public pure returns (uint8) {\r\n        if (operation == \"AND\") {\r\n            return a & b; // Побитовое AND\r\n        } else if (operation == \"OR\") {\r\n            return a | b; // Побитовое OR\r\n        } else if (operation == \"NOT\") {\r\n            return uint8(~a); // Побитовое NOT\r\n        } else if (operation == \"NAND\") {\r\n            return uint8(~(a & b)); // Побитовое NAND\r\n        } else if (operation == \"XOR\") {\r\n            return a ^ b; // Побитовое XOR\r\n        } else if (operation == \"NOR\") {\r\n            return uint8(~(a | b)); // Побитовое NOR\r\n        }\r\n        revert(\"Invalid operation\");\r\n    }\r\n}\r\n",
  "sourcePath": "/Users/noskov/Documents/ObtContracts/contracts/Polit1.sol",
  "compiler": {
    "name": "solc",
    "version": "0.5.16+commit.9c3226ce.Emscripten.clang"
  },
  "schemaVersion": "3.4.16",
  "updatedAt": "2024-04-14T17:16:46.145Z",
  "devdoc": {
    "methods": {}
  },
  "userdoc": {
    "methods": {}
  }
}