{
  "contractName": "Date",
  "abi": [
    {
      "constant": true,
      "inputs": [
        {
          "internalType": "uint256",
          "name": "timestamp1",
          "type": "uint256"
        },
        {
          "internalType": "uint256",
          "name": "timestamp2",
          "type": "uint256"
        }
      ],
      "name": "getDateDifference",
      "outputs": [
        {
          "internalType": "uint256",
          "name": "",
          "type": "uint256"
        }
      ],
      "payable": false,
      "stateMutability": "pure",
      "type": "function"
    },
    {
      "constant": true,
      "inputs": [
        {
          "internalType": "uint256",
          "name": "timestamp",
          "type": "uint256"
        },
        {
          "internalType": "uint256",
          "name": "daysTo",
          "type": "uint256"
        },
        {
          "internalType": "bytes32",
          "name": "operation",
          "type": "bytes32"
        }
      ],
      "name": "DaysToDate",
      "outputs": [
        {
          "internalType": "uint256",
          "name": "",
          "type": "uint256"
        }
      ],
      "payable": false,
      "stateMutability": "pure",
      "type": "function"
    }
  ],
  "bytecode": "0x608060405234801561001057600080fd5b5061027a806100206000396000f3fe608060405234801561001057600080fd5b50600436106100365760003560e01c80630eff936d1461003b5780636f84aa5014610087575b600080fd5b6100716004803603604081101561005157600080fd5b8101908080359060200190929190803590602001909291905050506100dd565b6040518082815260200191505060405180910390f35b6100c76004803603606081101561009d57600080fd5b81019080803590602001909291908035906020019092919080359060200190929190505050610160565b6040518082815260200191505060405180910390f35b600081831115610155576040517f08c379a00000000000000000000000000000000000000000000000000000000081526004018080602001828103825260128152602001807f496e76616c69642074696d657374616d7073000000000000000000000000000081525060200191505060405180910390fd5b828203905092915050565b60007f2b00000000000000000000000000000000000000000000000000000000000000821415610199576201518083028401905061023e565b7f2d000000000000000000000000000000000000000000000000000000000000008214156101d0576201518083028403905061023e565b6040517f08c379a00000000000000000000000000000000000000000000000000000000081526004018080602001828103825260118152602001807f496e76616c6964206f7065726174696f6e00000000000000000000000000000081525060200191505060405180910390fd5b939250505056fea265627a7a72315820586371b4b8f18feea11689a810cd396fd1baed973bafa6db90f0faf2c88bd29364736f6c63430005100032",
  "source": "// SPDX-License-Identifier: MIT\r\npragma solidity >=0.4.22 <0.9.0;\r\n\r\ncontract Date {\r\n    function getDateDifference(uint timestamp1, uint timestamp2) public pure returns (uint) {\r\n        require(timestamp1 <= timestamp2, \"Invalid timestamps\");\r\n        return timestamp2 - timestamp1;\r\n    }\r\n\r\n    function DaysToDate(uint timestamp, uint daysTo, bytes32 operation) public pure returns (uint) {\r\n        if (operation == \"+\") {\r\n            return timestamp + (daysTo * 1 days);\r\n        } else if(operation == \"-\") {\r\n             return timestamp - (daysTo * 1 days);\r\n        }\r\n        revert(\"Invalid operation\");\r\n        \r\n    }\r\n\r\n    \r\n}",
  "sourcePath": "/Users/noskov/Documents/ObtContracts/contracts/Date.sol",
  "compiler": {
    "name": "solc",
    "version": "0.5.16+commit.9c3226ce.Emscripten.clang"
  },
  "schemaVersion": "3.4.16",
  "updatedAt": "2024-03-31T09:41:54.105Z",
  "networkType": "ethereum",
  "devdoc": {
    "methods": {}
  },
  "userdoc": {
    "methods": {}
  }
}