{
  "contractName": "Note",
  "abi": [
    {
      "constant": true,
      "inputs": [
        {
          "internalType": "uint256",
          "name": "",
          "type": "uint256"
        }
      ],
      "name": "notes",
      "outputs": [
        {
          "internalType": "string",
          "name": "name",
          "type": "string"
        },
        {
          "internalType": "string",
          "name": "number",
          "type": "string"
        },
        {
          "internalType": "address",
          "name": "noteAddress",
          "type": "address"
        }
      ],
      "payable": false,
      "stateMutability": "view",
      "type": "function"
    },
    {
      "constant": false,
      "inputs": [
        {
          "internalType": "string",
          "name": "newName",
          "type": "string"
        },
        {
          "internalType": "string",
          "name": "newNumber",
          "type": "string"
        },
        {
          "internalType": "address",
          "name": "newAddress",
          "type": "address"
        }
      ],
      "name": "set",
      "outputs": [],
      "payable": false,
      "stateMutability": "nonpayable",
      "type": "function"
    },
    {
      "constant": true,
      "inputs": [],
      "name": "get",
      "outputs": [
        {
          "components": [
            {
              "internalType": "string",
              "name": "name",
              "type": "string"
            },
            {
              "internalType": "string",
              "name": "number",
              "type": "string"
            },
            {
              "internalType": "address",
              "name": "noteAddress",
              "type": "address"
            }
          ],
          "internalType": "struct Note.note",
          "name": "",
          "type": "tuple"
        }
      ],
      "payable": false,
      "stateMutability": "view",
      "type": "function"
    }
  ],
  "bytecode": "0x608060405234801561001057600080fd5b50610992806100206000396000f3fe608060405234801561001057600080fd5b50600436106100415760003560e01c806361c3a7e6146100465780636d4ce63c14610078578063bcc708bd14610096575b600080fd5b610060600480360361005b9190810190610695565b6100b2565b60405161006f939291906107a5565b60405180910390f35b61008061022c565b60405161008d91906107ea565b60405180910390f35b6100b060048036036100ab9190810190610616565b6103f0565b005b6000602052806000526040600020600091509050806000018054600181600116156101000203166002900480601f01602080910402602001604051908101604052809291908181526020018280546001816001161561010002031660029004801561015e5780601f106101335761010080835404028352916020019161015e565b820191906000526020600020905b81548152906001019060200180831161014157829003601f168201915b505050505090806001018054600181600116156101000203166002900480601f0160208091040260200160405190810160405280929190818152602001828054600181600116156101000203166002900480156101fc5780601f106101d1576101008083540402835291602001916101fc565b820191906000526020600020905b8154815290600101906020018083116101df57829003601f168201915b5050505050908060020160009054906101000a900473ffffffffffffffffffffffffffffffffffffffff16905083565b6102346104bc565b600080808152602001908152602001600020604051806060016040529081600082018054600181600116156101000203166002900480601f0160208091040260200160405190810160405280929190818152602001828054600181600116156101000203166002900480156102ea5780601f106102bf576101008083540402835291602001916102ea565b820191906000526020600020905b8154815290600101906020018083116102cd57829003601f168201915b50505050508152602001600182018054600181600116156101000203166002900480601f01602080910402602001604051908101604052809291908181526020018280546001816001161561010002031660029004801561038c5780601f106103615761010080835404028352916020019161038c565b820191906000526020600020905b81548152906001019060200180831161036f57829003601f168201915b505050505081526020016002820160009054906101000a900473ffffffffffffffffffffffffffffffffffffffff1673ffffffffffffffffffffffffffffffffffffffff1673ffffffffffffffffffffffffffffffffffffffff1681525050905090565b60405180606001604052808481526020018381526020018273ffffffffffffffffffffffffffffffffffffffff16815250600080808152602001908152602001600020600082015181600001908051906020019061044f9291906104f3565b50602082015181600101908051906020019061046c9291906104f3565b5060408201518160020160006101000a81548173ffffffffffffffffffffffffffffffffffffffff021916908373ffffffffffffffffffffffffffffffffffffffff160217905550905050505050565b60405180606001604052806060815260200160608152602001600073ffffffffffffffffffffffffffffffffffffffff1681525090565b828054600181600116156101000203166002900490600052602060002090601f016020900481019282601f1061053457805160ff1916838001178555610562565b82800160010185558215610562579182015b82811115610561578251825591602001919060010190610546565b5b50905061056f9190610573565b5090565b61059591905b80821115610591576000816000905550600101610579565b5090565b90565b6000813590506105a781610921565b92915050565b600082601f8301126105be57600080fd5b81356105d16105cc82610839565b61080c565b915080825260208301602083018583830111156105ed57600080fd5b6105f88382846108ce565b50505092915050565b60008135905061061081610938565b92915050565b60008060006060848603121561062b57600080fd5b600084013567ffffffffffffffff81111561064557600080fd5b610651868287016105ad565b935050602084013567ffffffffffffffff81111561066e57600080fd5b61067a868287016105ad565b925050604061068b86828701610598565b9150509250925092565b6000602082840312156106a757600080fd5b60006106b584828501610601565b91505092915050565b6106c781610892565b82525050565b6106d681610892565b82525050565b60006106e782610865565b6106f18185610870565b93506107018185602086016108dd565b61070a81610910565b840191505092915050565b600061072082610865565b61072a8185610881565b935061073a8185602086016108dd565b61074381610910565b840191505092915050565b6000606083016000830151848203600086015261076b82826106dc565b9150506020830151848203602086015261078582826106dc565b915050604083015161079a60408601826106be565b508091505092915050565b600060608201905081810360008301526107bf8186610715565b905081810360208301526107d38185610715565b90506107e260408301846106cd565b949350505050565b60006020820190508181036000830152610804818461074e565b905092915050565b6000604051905081810181811067ffffffffffffffff8211171561082f57600080fd5b8060405250919050565b600067ffffffffffffffff82111561085057600080fd5b601f19601f8301169050602081019050919050565b600081519050919050565b600082825260208201905092915050565b600082825260208201905092915050565b600061089d826108a4565b9050919050565b600073ffffffffffffffffffffffffffffffffffffffff82169050919050565b6000819050919050565b82818337600083830152505050565b60005b838110156108fb5780820151818401526020810190506108e0565b8381111561090a576000848401525b50505050565b6000601f19601f8301169050919050565b61092a81610892565b811461093557600080fd5b50565b610941816108c4565b811461094c57600080fd5b5056fea365627a7a72315820723c498f0077356173e217b7861c2a27a74169148b7d2da4985b876d5fea8f366c6578706572696d656e74616cf564736f6c63430005100040",
  "source": "// SPDX-License-Identifier: MIT\npragma solidity >=0.4.22 <0.9.0;\n\npragma experimental ABIEncoderV2;\n\ncontract Note {\n    struct note {\n        string name;\n        string number;\n        address noteAddress;\n    }\n\n    mapping(uint256 => note) public notes;\n\n    function set(string memory newName, string memory newNumber, address newAddress) public {\n        notes[0] = note(newName, newNumber, newAddress);\n    }\n\n    function get() public view returns (note memory) {\n        return notes[0];\n    }\n}\n",
  "sourcePath": "/Users/noskov/Documents/ObtContracts/contracts/Note.sol",
  "compiler": {
    "name": "solc",
    "version": "0.5.16+commit.9c3226ce.Emscripten.clang"
  },
  "schemaVersion": "3.4.16",
  "updatedAt": "2024-04-14T17:23:52.877Z",
  "networkType": "ethereum",
  "devdoc": {
    "methods": {}
  },
  "userdoc": {
    "methods": {}
  }
}