{
  "contractName": "PEre16",
  "abi": [
    {
      "constant": true,
      "inputs": [
        {
          "internalType": "uint256",
          "name": "BinaryNumber",
          "type": "uint256"
        }
      ],
      "name": "BinaryToDecimal",
      "outputs": [
        {
          "internalType": "uint256",
          "name": "",
          "type": "uint256"
        }
      ],
      "payable": false,
      "stateMutability": "pure",
      "type": "function"
    }
  ],
  "bytecode": "0x608060405234801561001057600080fd5b5060f38061001f6000396000f3fe6080604052348015600f57600080fd5b506004361060285760003560e01c8063cc145a1c14602d575b600080fd5b605660048036036020811015604157600080fd5b8101908080359060200190929190505050606c565b6040518082815260200191505060405180910390f35b6000806000905060006001905060008490505b600081111560b3576000600a8281609257fe5b069050600a8281609e57fe5b0491508281028401935060028302925050607f565b82935050505091905056fea265627a7a723158201fe658776aafc2f2ca0d8650de1f658dc92d6e5896857c050328c0d57317bc3264736f6c63430005100032",
  "source": "// SPDX-License-Identifier: MIT\npragma solidity >=0.4.22 <0.9.0;\n\ncontract PEre16 {\n  function BinaryToDecimal(uint BinaryNumber) public pure returns(uint){\n    uint decimalNumber = 0;\n    uint base =1;\n    uint temp = BinaryNumber;\n\n    while (temp>0)\n    {\n      uint lastDigit = temp % 10;\n      temp = temp /10;\n      decimalNumber += lastDigit * base;\n      base = base * 2;\n    }\n    return decimalNumber;\n    \n\n  }\n}\n",
  "sourcePath": "/Users/noskov/Documents/SIMPLECONTRACTSSSS/contracts/PEre16.sol",
  "compiler": {
    "name": "solc",
    "version": "0.5.16+commit.9c3226ce.Emscripten.clang"
  },
  "schemaVersion": "3.4.16",
  "updatedAt": "2024-03-30T14:40:34.270Z",
  "networkType": "ethereum",
  "devdoc": {
    "methods": {}
  },
  "userdoc": {
    "methods": {}
  }
}