{
  "contractName": "Perr16",
  "abi": [
    {
      "constant": true,
      "inputs": [
        {
          "internalType": "uint16",
          "name": "decimalNumber",
          "type": "uint16"
        }
      ],
      "name": "BinaryToDecimalSix",
      "outputs": [
        {
          "internalType": "string",
          "name": "",
          "type": "string"
        }
      ],
      "payable": false,
      "stateMutability": "pure",
      "type": "function"
    }
  ],
  "bytecode": "0x608060405234801561001057600080fd5b5061029f806100206000396000f3fe608060405234801561001057600080fd5b506004361061002b5760003560e01c806395a5315614610030575b600080fd5b6100606004803603602081101561004657600080fd5b81019080803561ffff1690602001909291905050506100db565b6040518080602001828103825283818151815260200191508051906020019080838360005b838110156100a0578082015181840152602081019050610085565b50505050905090810190601f1680156100cd5780820380516001836020036101000a031916815260200191505b509250505060405180910390f35b606060008261ffff16101580156100f8575061ffff8261ffff1611155b61010157600080fd5b606061010c83610117565b905080915050919050565b60608060046040519080825280601f01601f19166020018201604052801561014e5781602001600182028038833980820191505090505b5090506000600f9050600080905060008090505b60048110156101ed576000838761ffff161690508280610183575060008114155b156101d4576101918161023f565b8583600303815181106101a057fe5b60200101907effffffffffffffffffffffffffffffffffffffffffffffffffffffffffffff1916908160001a905350600192505b60048761ffff16901c9650508080600101915050610162565b5080610233576040518060400160405280600181526020017f3000000000000000000000000000000000000000000000000000000000000000815250935050505061023a565b8293505050505b919050565b6000600a821015610258576030820160f81b9050610265565b6041600a83030160f81b90505b91905056fea265627a7a723158201426994f8e6e1be15ba57d280fa891fceddc3bf10a4e27302f213324e79e1fd864736f6c63430005100032",
  "source": "// SPDX-License-Identifier: MIT\r\npragma solidity >=0.4.22 <0.9.0;\r\n\r\ncontract Perr16 {\r\n    function BinaryToDecimalSix(uint16 decimalNumber) public pure returns(string memory) {\r\n        require(decimalNumber >= 0 && decimalNumber <= 65535);\r\n        string memory hexString = toHexString(decimalNumber);\r\n        return hexString;\r\n    }\r\n\r\n    function toHexString(uint16 decimalNumber) internal pure returns (string memory) {\r\n        bytes memory buffer = new bytes(4);\r\n        uint256 mask = 15;\r\n\r\n        bool foundSignificantDigit = false; // Флаг для определения, были ли найдены значимые цифры\r\n\r\n        for (uint256 i = 0; i < 4; i++) {\r\n            uint256 digit = decimalNumber & mask;\r\n            if (foundSignificantDigit || digit != 0) {\r\n                buffer[3 - i] = toHexChar(digit);\r\n                foundSignificantDigit = true;\r\n            }\r\n            decimalNumber >>= 4;\r\n        }\r\n        \r\n        // Если не было найдено значимых цифр, возвращаем \"0\"\r\n        if (!foundSignificantDigit) {\r\n            return \"0\";\r\n        }\r\n\r\n        return string(buffer);\r\n    }\r\n\r\n    function toHexChar(uint256 digit) internal pure returns (bytes1) {\r\n        if (digit < 10) {\r\n            return bytes1(uint8(digit) + 48);\r\n        } else {\r\n            return bytes1(uint8(digit - 10 + 65));\r\n        }\r\n    }\r\n}\r\n",
  "sourcePath": "/Users/noskov/Documents/ObtContracts/contracts/Perr16.sol",
  "compiler": {
    "name": "solc",
    "version": "0.5.16+commit.9c3226ce.Emscripten.clang"
  },
  "schemaVersion": "3.4.16",
  "updatedAt": "2024-04-04T14:41:00.555Z",
  "devdoc": {
    "methods": {}
  },
  "userdoc": {
    "methods": {}
  }
}