{
  "contractName": "Perr",
  "abi": [
    {
      "constant": true,
      "inputs": [
        {
          "internalType": "uint256",
          "name": "octalnumber",
          "type": "uint256"
        }
      ],
      "name": "octal",
      "outputs": [
        {
          "internalType": "uint256",
          "name": "",
          "type": "uint256"
        }
      ],
      "payable": false,
      "stateMutability": "pure",
      "type": "function"
    }
  ],
  "bytecode": "0x608060405234801561001057600080fd5b5060f38061001f6000396000f3fe6080604052348015600f57600080fd5b506004361060285760003560e01c8063adb832d014602d575b600080fd5b605660048036036020811015604157600080fd5b8101908080359060200190929190505050606c565b6040518082815260200191505060405180910390f35b6000806000905060006001905060008490505b600081111560b3576000600a8281609257fe5b069050600a8281609e57fe5b0491508281028401935060088302925050607f565b82935050505091905056fea265627a7a72315820427d0465b06cf073421d4a2b2870efbba6f1b3644c43c2fe0e75c983972cfdd464736f6c63430005100032",
  "source": "// SPDX-License-Identifier: MIT\r\npragma solidity >=0.4.22 <0.9.0;\r\n\r\ncontract Perr {\r\n  function octal(uint octalnumber) public pure returns(uint){\r\n      uint decimalnumber =0;\r\n      uint base = 1 ;\r\n      uint temp = octalnumber;\r\n\r\n      while(temp > 0)\r\n      {\r\n        uint lastdigit = temp %10;\r\n        temp = temp /10;\r\n        decimalnumber+=lastdigit * base;\r\n        base = base * 8;\r\n      }\r\n      return decimalnumber;\r\n  } \r\n}",
  "sourcePath": "/Users/noskov/Documents/ObtContracts/contracts/Perr.sol",
  "compiler": {
    "name": "solc",
    "version": "0.5.16+commit.9c3226ce.Emscripten.clang"
  },
  "schemaVersion": "3.4.16",
  "updatedAt": "2024-03-31T09:41:53.098Z",
  "networkType": "ethereum",
  "devdoc": {
    "methods": {}
  },
  "userdoc": {
    "methods": {}
  }
}