{
  "contractName": "Perr281016",
  "abi": [
    {
      "constant": true,
      "inputs": [
        {
          "internalType": "string",
          "name": "number",
          "type": "string"
        },
        {
          "internalType": "uint8",
          "name": "fromBase",
          "type": "uint8"
        },
        {
          "internalType": "uint8",
          "name": "toBase",
          "type": "uint8"
        }
      ],
      "name": "convertNumber",
      "outputs": [
        {
          "internalType": "string",
          "name": "",
          "type": "string"
        }
      ],
      "payable": false,
      "stateMutability": "pure",
      "type": "function"
    }
  ],
  "bytecode": "0x608060405234801561001057600080fd5b506104ad806100206000396000f3fe608060405234801561001057600080fd5b506004361061002b5760003560e01c8063b79daa9814610030575b600080fd5b6101036004803603606081101561004657600080fd5b810190808035906020019064010000000081111561006357600080fd5b82018360208201111561007557600080fd5b8035906020019184600183028401116401000000008311171561009757600080fd5b91908080601f016020809104026020016040519081016040528093929190818152602001838380828437600081840152601f19601f820116905080830192505050505050509192919290803560ff169060200190929190803560ff16906020019092919050505061017e565b6040518080602001828103825283818151815260200191508051906020019080838360005b83811015610143578082015181840152602081019050610128565b50505050905090810190601f1680156101705780820380516001836020036101000a031916815260200191505b509250505060405180910390f35b606060028360ff1610158015610198575060108360ff1611155b6101a157600080fd5b60028260ff16101580156101b9575060108260ff1611155b6101c257600080fd5b60006101ce85856101e4565b90506101da8184610296565b9150509392505050565b6000606083905060008090506000600190506000835190505b600081111561028957600084600183038151811061021757fe5b602001015160f81c60f81b60f81c60ff1690506030811015801561023c575060398111155b1561024c5760308103905061026b565b6041811015801561025e575060468111155b1561026a576037810390505b5b828102840193508660ff1683029250508080600190039150506101fd565b5081935050505092915050565b606060008314156102de576040518060400160405280600181526020017f30000000000000000000000000000000000000000000000000000000000000008152509050610447565b6060604080519080825280601f01601f1916602001820160405280156103135781602001600182028038833980820191505090505b50905060008090505b60008511156103955760008460ff16868161033357fe5b06905061033f8161044d565b83838060010194508151811061035157fe5b60200101907effffffffffffffffffffffffffffffffffffffffffffffffffffffffffffff1916908160001a9053508460ff16868161038c57fe5b0495505061031c565b6060816040519080825280601f01601f1916602001820160405280156103ca5781602001600182028038833980820191505090505b50905060008090505b8281101561043f5783816001850303815181106103ec57fe5b602001015160f81c60f81b82828151811061040357fe5b60200101907effffffffffffffffffffffffffffffffffffffffffffffffffffffffffffff1916908160001a90535080806001019150506103d3565b508093505050505b92915050565b6000600a821015610466576030820160f81b9050610473565b6041600a83030160f81b90505b91905056fea265627a7a723158205a40045ad30e27f81ee0d46a0d7f66f4b07b0666ad8ee2c5575f930f9f5b651064736f6c63430005100032",
  "source": "// SPDX-License-Identifier: MIT\r\npragma solidity >=0.4.22 <0.9.0;\r\n\r\ncontract Perr281016 {\r\n    function convertNumber(string memory number, uint8 fromBase, uint8 toBase) public pure returns(string memory) {\r\n      require(fromBase >=2 && fromBase<=16);\r\n      require(toBase >=2 && toBase<=16);\r\n\r\n      uint256 decimalNumber = fromBaseConversionToDecimal(number, fromBase);\r\n      return toBaseConversionToDecimal(decimalNumber, toBase);\r\n\r\n    \r\n      \r\n     \r\n    }\r\n\r\n    function fromBaseConversionToDecimal(string memory number, uint8 fromBase) internal pure returns (uint256) {\r\n        bytes memory digits = bytes(number);\r\n        uint256 decimalNumber = 0;\r\n        uint256 base = 1;\r\n\r\n        for (uint256 i = digits.length; i>0; i--){\r\n            uint256 digit = uint8(digits[i-1]);\r\n            if(digit >= 48 && digit <= 57) {\r\n                digit -= 48;\r\n            } else if(digit >= 65 && digit <= 70) {\r\n                digit -= 55;\r\n\r\n            }\r\n            decimalNumber += digit * base;\r\n            base *= fromBase; \r\n        }\r\n        return decimalNumber;\r\n    }\r\n    \r\n    function toBaseConversionToDecimal(uint256 decimalNumber, uint8 toBase) internal pure returns (string memory) {\r\n        if (decimalNumber == 0) {\r\n            return \"0\";\r\n        }\r\n\r\n       bytes memory result = new bytes(64);\r\n       uint256 index = 0;\r\n       while (decimalNumber > 0) {\r\n           uint256 digit = decimalNumber % toBase;\r\n           result[index++] = toHexChar(digit);\r\n           decimalNumber /= toBase;\r\n       }\r\n       bytes memory baseconvert = new bytes(index);\r\n       for (uint256 i = 0; i< index; i++){\r\n           baseconvert[i] = result[index - 1 - i];\r\n       }\r\n       return string(baseconvert);\r\n\r\n\r\n    }\r\n\r\n   function toHexChar(uint256 digit) internal pure returns (bytes1) {\r\n       if (digit < 10) {\r\n           return bytes1 (uint8(digit) + 48);\r\n       } else {\r\n            return bytes1 (uint8(digit - 10 + 65));\r\n       }\r\n   }\r\n\r\n}",
  "sourcePath": "/Users/noskov/Documents/SIMPLECONTRACTSSSS/contracts/Perr281016.sol",
  "compiler": {
    "name": "solc",
    "version": "0.5.16+commit.9c3226ce.Emscripten.clang"
  },
  "schemaVersion": "3.4.16",
  "updatedAt": "2024-03-30T14:40:34.887Z",
  "networkType": "ethereum",
  "devdoc": {
    "methods": {}
  },
  "userdoc": {
    "methods": {}
  }
}