{
  "contractName": "Perr2",
  "abi": [
    {
      "constant": true,
      "inputs": [
        {
          "internalType": "uint256",
          "name": "BinaryNumberTwo",
          "type": "uint256"
        }
      ],
      "name": "BinaryToDecimalTwo",
      "outputs": [
        {
          "internalType": "uint256",
          "name": "",
          "type": "uint256"
        }
      ],
      "payable": false,
      "stateMutability": "pure",
      "type": "function"
    }
  ],
  "bytecode": "0x608060405234801561001057600080fd5b5060f38061001f6000396000f3fe6080604052348015600f57600080fd5b506004361060285760003560e01c806306ed691b14602d575b600080fd5b605660048036036020811015604157600080fd5b8101908080359060200190929190505050606c565b6040518082815260200191505060405180910390f35b6000806000905060006001905060008490505b600081111560b357600060028281609257fe5b06905060028281609e57fe5b04915082810284019350600a8302925050607f565b82935050505091905056fea265627a7a723158209c5ed6246482da8c68d881d31efc95d985d11131987ab487152d7e703b9819d464736f6c63430005100032",
  "source": "// SPDX-License-Identifier: MIT\r\npragma solidity >=0.4.22 <0.9.0;\r\n\r\ncontract Perr2 {\r\n  function BinaryToDecimalTwo(uint BinaryNumberTwo) public pure returns(uint){\r\n    uint decimalNumber = 0;\r\n    uint base =1;\r\n    uint temp = BinaryNumberTwo;\r\n\r\n    while (temp>0)\r\n    {\r\n      uint lastDigit = temp % 2;\r\n      temp = temp /2;\r\n      decimalNumber += lastDigit * base;\r\n      base = base * 10;\r\n    }\r\n    return decimalNumber;\r\n    \r\n\r\n  }\r\n}\r\n",
  "sourcePath": "/Users/noskov/Documents/ObtContracts/contracts/Perr2.sol",
  "compiler": {
    "name": "solc",
    "version": "0.5.16+commit.9c3226ce.Emscripten.clang"
  },
  "schemaVersion": "3.4.16",
  "updatedAt": "2024-04-15T17:41:24.379Z",
  "networkType": "ethereum",
  "devdoc": {
    "methods": {}
  },
  "userdoc": {
    "methods": {}
  }
}