{
  "contractName": "Polit1",
  "abi": [
    {
      "constant": true,
      "inputs": [
        {
          "internalType": "uint8",
          "name": "a",
          "type": "uint8"
        },
        {
          "internalType": "uint8",
          "name": "b",
          "type": "uint8"
        },
        {
          "internalType": "bytes32",
          "name": "operation",
          "type": "bytes32"
        }
      ],
      "name": "AndOrNot",
      "outputs": [
        {
          "internalType": "uint8",
          "name": "",
          "type": "uint8"
        }
      ],
      "payable": false,
      "stateMutability": "pure",
      "type": "function"
    }
  ],
  "bytecode": "0x608060405234801561001057600080fd5b506101d3806100206000396000f3fe608060405234801561001057600080fd5b506004361061002b5760003560e01c806335857a6514610030575b600080fd5b6100766004803603606081101561004657600080fd5b81019080803560ff169060200190929190803560ff16906020019092919080359060200190929190505050610092565b604051808260ff1660ff16815260200191505060405180910390f35b60007f414e4400000000000000000000000000000000000000000000000000000000008214156100c6578284169050610197565b7f4f520000000000000000000000000000000000000000000000000000000000008214156100f8578284179050610197565b7f4e4f5400000000000000000000000000000000000000000000000000000000008214156101295783199050610197565b6040517f08c379a00000000000000000000000000000000000000000000000000000000081526004018080602001828103825260118152602001807f496e76616c6964206f7065726174696f6e00000000000000000000000000000081525060200191505060405180910390fd5b939250505056fea265627a7a72315820a27472d0277172725c4e7fa8d8cfebc88933babc1e2420b9a2f818f8d8b5c44a64736f6c63430005100032",
  "source": "// SPDX-License-Identifier: MIT\r\npragma solidity >=0.4.22 <0.9.0;\r\n\r\ncontract Polit1 {\r\n    function AndOrNot(uint8 a, uint8 b, bytes32 operation) public pure returns (uint8) {\r\n        if (operation == \"AND\") {\r\n            return a & b; // Побитовое AND\r\n        } else if (operation == \"OR\") {\r\n            return a | b; // Побитовое OR\r\n        } else if (operation == \"NOT\") {\r\n            return uint8(~a); // Побитовое NOT\r\n        }\r\n        revert(\"Invalid operation\");\r\n    }\r\n}",
  "sourcePath": "/Users/noskov/IT/SIMPLECONTRACTSSSS/contracts/Polit1.sol",
  "compiler": {
    "name": "solc",
    "version": "0.5.16+commit.9c3226ce.Emscripten.clang"
  },
  "schemaVersion": "3.4.16",
  "updatedAt": "2024-03-31T09:41:53.770Z",
  "networkType": "ethereum",
  "devdoc": {
    "methods": {}
  },
  "userdoc": {
    "methods": {}
  }
}