{
  "contractName": "Polit2",
  "abi": [
    {
      "constant": true,
      "inputs": [
        {
          "internalType": "uint8",
          "name": "a",
          "type": "uint8"
        },
        {
          "internalType": "uint8",
          "name": "b",
          "type": "uint8"
        },
        {
          "internalType": "bytes32",
          "name": "operation",
          "type": "bytes32"
        }
      ],
      "name": "NandNorXor",
      "outputs": [
        {
          "internalType": "uint8",
          "name": "",
          "type": "uint8"
        }
      ],
      "payable": false,
      "stateMutability": "pure",
      "type": "function"
    }
  ],
  "bytecode": "0x608060405234801561001057600080fd5b506101d6806100206000396000f3fe608060405234801561001057600080fd5b506004361061002b5760003560e01c8063d6e1adb914610030575b600080fd5b6100766004803603606081101561004657600080fd5b81019080803560ff169060200190929190803560ff16906020019092919080359060200190929190505050610092565b604051808260ff1660ff16815260200191505060405180910390f35b60007f4e414e44000000000000000000000000000000000000000000000000000000008214156100c75782841619905061019a565b7f4e4f5200000000000000000000000000000000000000000000000000000000008214156100fa5782841719905061019a565b7f584f52000000000000000000000000000000000000000000000000000000000082141561012c57828418905061019a565b6040517f08c379a00000000000000000000000000000000000000000000000000000000081526004018080602001828103825260118152602001807f496e76616c6964206f7065726174696f6e00000000000000000000000000000081525060200191505060405180910390fd5b939250505056fea265627a7a72315820c5d4f1b7a619c85413d9d9146c69ab34bfd09affc19384c90a2406d8bc041d4d64736f6c63430005100032",
  "source": "// SPDX-License-Identifier: MIT\r\npragma solidity >=0.4.22 <0.9.0;\r\n\r\ncontract Polit2 {\r\n    function NandNorXor(uint8 a, uint8 b, bytes32 operation) public pure returns (uint8) {\r\n        if (operation == \"NAND\") {\r\n            return uint8(~(a & b));\r\n        } else if (operation == \"NOR\") {\r\n            return uint8(~(a | b));\r\n        } else if (operation == \"XOR\") {\r\n            return a ^ b;\r\n        }\r\n        revert(\"Invalid operation\");\r\n    }\r\n}",
  "sourcePath": "/Users/noskov/Documents/SIMPLECONTRACTSSSS/contracts/Polit2.sol",
  "compiler": {
    "name": "solc",
    "version": "0.5.16+commit.9c3226ce.Emscripten.clang"
  },
  "schemaVersion": "3.4.16",
  "updatedAt": "2024-03-30T14:40:34.979Z",
  "networkType": "ethereum",
  "devdoc": {
    "methods": {}
  },
  "userdoc": {
    "methods": {}
  }
}