{
  "contractName": "RandomSeven",
  "abi": [
    {
      "constant": true,
      "inputs": [
        {
          "internalType": "uint256",
          "name": "x",
          "type": "uint256"
        }
      ],
      "name": "Random",
      "outputs": [
        {
          "internalType": "string",
          "name": "",
          "type": "string"
        }
      ],
      "payable": false,
      "stateMutability": "pure",
      "type": "function"
    }
  ],
  "bytecode": "0x608060405234801561001057600080fd5b506101fc806100206000396000f3fe608060405234801561001057600080fd5b506004361061002b5760003560e01c8063bcf69e7214610030575b600080fd5b61005c6004803603602081101561004657600080fd5b81019080803590602001909291905050506100d7565b6040518080602001828103825283818151815260200191508051906020019080838360005b8381101561009c578082015181840152602081019050610081565b50505050905090810190601f1680156100c95780820380516001836020036101000a031916815260200191505b509250505060405180910390f35b60606000806130396341c64e6d85020193506180006201000085816100f857fe5b048161010057fe5b0691506000600190505b600581116101865760018103600a0a81600a0a848161012557fe5b068161012d57fe5b0491506007821415610179576040518060400160405280600681526020017f57696e6e6572000000000000000000000000000000000000000000000000000081525093505050506101c2565b808060010191505061010a565b506040518060400160405280600681526020017f4c6f6f7365720000000000000000000000000000000000000000000000000000815250925050505b91905056fea265627a7a723158207a4c1eb934cedbb17202d38bc0ff2cc9a5ad24814e479f94fe6c3a98a97e159464736f6c63430005100032",
  "source": "// SPDX-License-Identifier: MIT\npragma solidity >=0.4.22 <0.9.0;\n\ncontract RandomSeven {\n  function Random(uint x) public pure returns (string memory) {\n    uint N;\n    uint MasRand;\n    x = x * 1103515245 + 12345;\n    N = (x/65536) % 32768;\n    for (uint i = 1; i <=5; i++) {\n      MasRand = (N % (10 ** i)) / (10 ** (i - 1));\n      if (MasRand == 7) return (\"Winner\");\n    }\n    return (\"Looser\");\n    \n  }\n}\n",
  "sourcePath": "/Users/noskov/Documents/ObtContracts/contracts/RandomSeven.sol",
  "compiler": {
    "name": "solc",
    "version": "0.5.16+commit.9c3226ce.Emscripten.clang"
  },
  "schemaVersion": "3.4.16",
  "updatedAt": "2024-04-14T17:23:53.426Z",
  "networkType": "ethereum",
  "devdoc": {
    "methods": {}
  },
  "userdoc": {
    "methods": {}
  }
}