{
  "contractName": "Shift",
  "abi": [
    {
      "constant": true,
      "inputs": [
        {
          "internalType": "uint8",
          "name": "a",
          "type": "uint8"
        },
        {
          "internalType": "uint8",
          "name": "shift",
          "type": "uint8"
        },
        {
          "internalType": "bytes32",
          "name": "operation",
          "type": "bytes32"
        }
      ],
      "name": "ShiftLeftRight",
      "outputs": [
        {
          "internalType": "uint8",
          "name": "",
          "type": "uint8"
        }
      ],
      "payable": false,
      "stateMutability": "pure",
      "type": "function"
    }
  ],
  "bytecode": "0x608060405234801561001057600080fd5b506101b0806100206000396000f3fe608060405234801561001057600080fd5b506004361061002b5760003560e01c8063b5e5f4f214610030575b600080fd5b6100766004803603606081101561004657600080fd5b81019080803560ff169060200190929190803560ff16906020019092919080359060200190929190505050610092565b604051808260ff1660ff16815260200191505060405180910390f35b60007f3c000000000000000000000000000000000000000000000000000000000000008214156100cd578260ff168460ff16901b9050610174565b7f3e00000000000000000000000000000000000000000000000000000000000000821415610106578260ff168460ff16901c9050610174565b6040517f08c379a00000000000000000000000000000000000000000000000000000000081526004018080602001828103825260118152602001807f496e76616c6964206f7065726174696f6e00000000000000000000000000000081525060200191505060405180910390fd5b939250505056fea265627a7a723158209b8b3e5b1ff84f0b324a5b3004a9d29917263b940267b497b0374d9c4f44ed7f64736f6c63430005100032",
  "source": "// SPDX-License-Identifier: MIT\r\npragma solidity >=0.4.22 <0.9.0;\r\n\r\ncontract Shift {\r\n    function ShiftLeftRight(uint8 a, uint8 shift, bytes32 operation) public pure returns (uint8) {\r\n        \r\n        \r\n     \r\n        \r\n        \r\n        if (operation == \"<\") {\r\n           \r\n            return a << shift;\r\n        } else if (operation == \">\") {\r\n            \r\n            return a >> shift;\r\n        }\r\n        revert(\"Invalid operation\");\r\n         \r\n    }\r\n\r\n    \r\n}",
  "sourcePath": "/Users/noskov/Documents/SIMPLECONTRACTSSSS/contracts/Shift.sol",
  "compiler": {
    "name": "solc",
    "version": "0.5.16+commit.9c3226ce.Emscripten.clang"
  },
  "schemaVersion": "3.4.16",
  "updatedAt": "2024-03-30T14:40:35.328Z",
  "networkType": "ethereum",
  "devdoc": {
    "methods": {}
  },
  "userdoc": {
    "methods": {}
  }
}